:100000000C9495000C94BD000C94BD000C94BD00A4
:100010000C94BD000C94BD000C94BD000C94BD006C
:100020000C94BD000C94BD000C94BD000C94BD005C
:100030000C94BD000C94BD000C94BD000C94BD004C
:100040000C94F31B0C94BD000C9478190C94BB1900
:100050000C94BD000C94BD000C94BD000C94BD002C
:100060000C94A4170C94BD00084AD73B3BCE016EFC
:1000700084BCBFFDC12F3D6C74319ABD56833DDAFF
:100080003D00C77F11BED9E4BB4C3E916BAAAABE0E
:10009000000000803F004572726F722072656164DB
:1000A000696E672073656E736F72006932635265A3
:1000B00061642074696D656F75740069326352659F
:1000C0006164206661696C65643A20006932635737
:1000D00072697465206661696C65643A200000008D
:1000E00000070002010000030406000000000000F9
:1000F00000000102040810204080010204081020C2
:10010000010204081020040404040404040402028C
:1001100002020202030303030303000000002500A0
:1001200028002B00840D3415791A11241FBECFEF3F
:10013000D8E0DEBFCDBF13E0A0E0B1E0E4E1F5E43C
:1001400002C005900D92AE37B107D9F729E0AEE7AE
:10015000B3E001C01D92A132B207E1F710E0C5E99A
:10016000D0E004C02197FE010E946A22C239D10763
:10017000C9F70E94D1180C9488220C940000DC016D
:10018000FB0112968C911297808313968C91139792
:10019000818314968C911497828315968C91159770
:1001A000838316968C911697848317968C91179754
:1001B000858318968C911897868319968C918783DE
:1001C00088E090E00895FC01DB014C9150E060E094
:1001D00070E0428353836483758311968C911197E9
:1001E000582B428353836483758312968C911297A4
:1001F000682B428353836483758313968C91139782
:10020000782B428353836483758314964C9114979F
:1002100050E060E070E046835783608771871596F1
:100220008C911597582B4683578360877187169654
:100230008C911697682B4683578360877187179632
:100240008C91782B468357836087718788E090E094
:10025000089586E091E0089584E191E0089585E3B2
:1002600091E008958EE491E008958FE691E008957D
:1002700082E891E0089588ED92E0089583EA91E0A4
:10028000089584EC91E0089584ED91E0089585EF60
:1002900091E008958EE092E008958FE292E0089553
:1002A00085E492E0089586E692E0089586E792E07C
:1002B0000895FC01EA54FD4F80810895A5E0B0E067
:1002C000E4E6F1E00C9427228C016B0164367105A1
:1002D0003CF0FC01EA54FD4F8081882309F478C08A
:1002E000DA01ED91FC910190F081E02DB801695C9B
:1002F0007E4FCA0109957801B0EDEB1ABEEFFB0AFB
:100300002FEFF70120832EEF3196208331968083E3
:10031000319690833196292F280F2095208331968E
:10032000C082D801AA5CBE4FDC9245E050E020E0DC
:1003300030E0BC016A5F7F4F6417750734F0A1910C
:100340002A0F311D4F5F5F4FF7CF6C01F8E0CF0EE2
:10035000D11C800F911FFC01E95CFE4F209520838A
:1003600029E1C21621E0D206CCF45701C5018E194D
:100370009F098C159D0584F4D80112968D919C914E
:100380001397F50161915F01DC01ED91FC91019002
:10039000F081E02D0995EACFC6011CC080E193E011
:1003A0009A83898383E08B8387E992E09D838C83A2
:1003B000D801ED91FC910190F081E02DAE014F5FED
:1003C0005F4F67E070E0C80109958FEF9FEF02C0B3
:1003D00080E090E02596EAE00C944322A0E0B0E0B3
:1003E000E4EFF1E00C942522EC01CB01BA018B0182
:1003F0009C0147E135952795179507954A95D1F7C3
:10040000112722273327011511052105310521F078
:1004100000581C4F2F4F3F4F188219821A826B01D0
:100420007C0145E0CC0CDD1CEE1CFF1C4A95D1F78D
:10043000CB826B017C0153E0F594E794D794C79489
:100440005A95D1F7CC826B017C01EBE0F594E794EF
:10045000D794C794EA95D1F7CD8268017901F4E089
:10046000CC0CDD1CEE1CFF1CFA95D1F74B015C0196
:10047000A3E1B594A79497948794AA95D1F7482DB2
:100480004F70C42ACE8268017901B4E0F594E794F4
:10049000D794C794BA95D1F720E030E0A9010E9423
:1004A000A51F87FD02C0CF8203C00C2D00680F83FB
:1004B00088E090E0CDB7DEB7ECE00C944122EF92FB
:1004C000FF920F931F93CF93DF937C018B01FC016D
:1004D0004281538164817581C8010E94EE01EC0163
:1004E000F7014681578160857185C8018C0F9D1F7A
:1004F0000E94EE01C80FD91FF7014285538564851C
:100500007585C8018C0F9D1F0E94EE018C0F9D1FE9
:10051000CDB7DEB7E6E00C944722EF92FF920F933F
:100520001F93CF93DF937C018B01FC0142815381A8
:1005300064817581C8010E94EE01EC01F7014681DA
:10054000578160857185C8018C0F9D1F0E94EE0147
:10055000C80FD91FF7014285538564857585C80189
:100560008C0F9D1F0E94EE01C80FD91FF701468511
:10057000578560897189C8018C0F9D1F0E94EE010B
:100580008C0F9D1FCDB7DEB7E6E00C9447228F920B
:100590009F92AF92BF92CF92DF92EF92FF920F9312
:1005A0001F93FC01DB01C380C294C69427E0C222E2
:1005B0008C2C912CA12CB12C8D929D92AD92BC9241
:1005C0001397C480D12CE12CF12C33E0CC0CDD1C32
:1005D000EE1CFF1C3A95D1F7C828D928EA28FB2839
:1005E000CD92DD92ED92FC921397058110E020E010
:1005F00030E04BE0000F111F221F331F4A95D1F747
:10060000C02AD12AE22AF32ACD92DD92ED92FC9201
:10061000139706810F7010E020E030E053E1000FE7
:10062000111F221F331F5A95D1F70C291D292E297E
:100630003F290D931D932D933C93139786818295AB
:100640008F7047814F7750E060E070E094E0440F96
:10065000551F661F771F9A95D1F7482B41155105F5
:1006600061057105A1F0405853406109710997E196
:10067000440F551F661F771F9A95D1F7402B512BBA
:10068000622B732B4D935D936D937C9313974781EE
:10069000407850E060E070E0742F662755274427CB
:1006A0000D911D912D913C911397402B512B622B55
:1006B000732B4D935D936D937C93139788E090E03B
:1006C0001F910F91FF90EF90DF90CF90BF90AF9070
:1006D0009F908F900895EF92FF920F931F93CF9367
:1006E000DF938C017B01BC016E5F7F4FC7010E94CD
:1006F000C702EC01B8016A5F7F4FC7018C0F9D1FD5
:100700000E94C702C80FD91FB801665F7F4FC7019B
:100710008C0F9D1F0E94C702C80FD91FB801625FCE
:100720007F4FC7018C0F9D1F0E94C7028C0F9D1F1A
:10073000CDB7DEB7E6E00C944722EF92FF920F931D
:100740001F93CF93DF938C017B01BC016E5F7F4FC2
:10075000C7010E94C702EC01B8016A5F7F4FC70161
:100760008C0F9D1F0E94C702C80FD91FB801665F7A
:100770007F4FC7018C0F9D1F0E94C7028C0F9D1FCA
:10078000CDB7DEB7E6E00C944722CF92DF92EF922E
:10079000FF9220E030E06A017B01022E04C0F69453
:1007A000E794D794C7940A94D2F7FC01C192CF0181
:1007B000285F3F4F2032310571F7FF90EF90DF90B7
:1007C000CF900895EF92FF920F931F93CF93DF93F3
:1007D0008C01EB01FC018281888383818983848180
:1007E0008A8385818B8386818C8387818D838085B5
:1007F0008E8381858F838285888783858987848599
:100800008A8785858B87A685B785FD0101900020A5
:10081000E9F731977F01EA1AFB0AA70160E070E06F
:10082000CE010C960E94C503F80166857785A70165
:10083000CE0140960E947F22C7014096CDB7DEB719
:10084000E6E00C944722A0E0B0E0E9E2F4E00C948A
:1008500027228C017B0102960E94E203EC01B70182
:10086000680F791FC80142960E948D02C80FD91FD8
:10087000680184E2C80ED11C5801E8E4AE0EB11C38
:10088000F60141915191619171916F01C7018C0FF6
:100890009D1F0E94EE01C80FD91FCA14DB0481F707
:1008A000B7016C0F7D1FC6010E945F02C80FD91FE0
:1008B0006801F6E5CF0ED11C58018AE7A80EB11CDD
:1008C000F60141915191619171916F01C7018C0FB6
:1008D0009D1F0E94EE01C80FD91FCA14DB0481F7C7
:1008E000B7016C0F7D1FC6010E945F02C80FD91FA0
:1008F0006801F8E8CF0ED11C04551F4FF601419155
:100900005191619171916F01C7018C0F9D1F0E94E0
:10091000EE01C80FD91FC016D10681F7CE01CDB7A1
:10092000DEB7EAE00C9443224F925F926F927F927F
:10093000AF92BF92CF92DF92EF92FF920F931F93ED
:10094000CF93DF93EC017B018A81FB0180838B8154
:1009500081838C8182838D818383DB01179640E0C4
:1009600050E0BA01E4E0F0E04A805B806C807D807A
:100970008F010C5F1F4F4415550566057705C0F4C0
:100980008A859B85E80FF91F3497D0802181928159
:100990008381FD013397D0823196208331969083F5
:1009A0008C93F8014F5F5F4F6F4F7F4F1496DCCFF2
:1009B000EE0DFF1D8C8580838D8581838E858283DE
:1009C0008F85838380E090E040E050E0BA014C8462
:1009D0005D846E847F84F701E00FF11F0C5F1F4F71
:1009E0004415550566057705B8F4AC89BD89A80F8F
:1009F000B91FCC901196DC90119712963C911297EA
:100A000013962C91C082D182328323834F5F5F4F34
:100A10006F4F7F4F0496DBCF8E8980838F898183D0
:100A2000888D8283898D8383412C512C32018E895C
:100A30009F89A88DB98D481659066A067B0680F5F0
:100A40005201AA0CBB1CEC8DFD8DEA0DFB1DA08193
:100A5000B181FD0101900020E9F731976F01CA1AB9
:100A6000DB0AA60160E070E0C701800F911F0E94C1
:100A7000C5030C5F1F4F8C8D9D8DFC01EA0DFB1D86
:100A800060817181A601C701800F911F0E947F22A2
:100A90000C0D1D1DFFEF4F1A5F0A6F0A7F0AC7CFAB
:100AA000C801DF91CF911F910F91FF90EF90DF90E0
:100AB000CF90BF90AF907F906F905F904F900895D0
:100AC000EF92FF920F931F93CF93DF938C017B01E3
:100AD000EC018A81FB018193AB81BC81ED0109901E
:100AE0000020E9F72197CA1BDB0BAE0160E070E044
:100AF000CF010E94C503F80163817481AE01C70173
:100B000005960E947F22CE010596CDB7DEB7E6E0BE
:100B10000C944722A0E0B0E0E0E9F5E00C94292233
:100B20006C01EB01FC018281888383818983A4812C
:100B3000B581FD0101900020E9F731978F010A1B73
:100B40001B0BA80160E070E0CE0102960E94C50375
:100B5000F60164817581A801CE0106960E947F226C
:100B6000C8010696F601A681B781FD01019000201B
:100B7000E9F731977F01EA1AFB0AA70160E070E00C
:100B80008C0F9D1F0E94C503065F1F4FF6016681F3
:100B90007781A701CE01800F911F0E947F220E0D49
:100BA0001F1DF601A085B185FD0101900020E9F728
:100BB00031977F01EA1AFB0AA70160E070E0CE01DD
:100BC000800F911F0E94C5030C5F1F4FF6016085C7
:100BD0007185A701CE01800F911F0E947F22C8015D
:100BE0008E0D9F1DF6016285438534852585C80FCE
:100BF000D91F688349833A832B830496CDB7DEB728
:100C0000E8E00C944522CF92DF92EF92FF92FC0134
:100C10001082118212821382DB0120E030E04D91BC
:100C200050E0022E02C0440F551F0A94E2F7052E31
:100C3000000C660B770BC080D180E280F3804C29DA
:100C40005D296E297F294083518362837383285FE6
:100C50003F4F2032310519F7FF90EF90DF90CF9092
:100C60000895A4E0B0E0E7E3F6E00C9425227C01CF
:100C70008B01FB018191BF01F7018283CE010196B7
:100C80000E94030689819A81AB81BC814C015D0180
:100C9000F5E08F0E911CA11CB11C680125E0C20E6D
:100CA000D11CA601401B510B60E070E048155905AE
:100CB0006A057B0548F4F60141916F019F012250BE
:100CC0003109F9014083EDCFF801E80FF91F1482D3
:100CD0000C5F1F4FF7011483038305962496ECE005
:100CE0000C944122ACE0B0E0E8E7F6E00C9421225D
:100CF0007C018B01DB018C9190E0F701938382836F
:100D000011962C91922B938382836E5F7F4FCE013D
:100D100009960E94030689849A84AB84BC84B50139
:100D2000A4014A5F5F4F6F4F7F4FF8013696CF01A6
:100D3000801B910BA0E0B0E084179507A607B707CA
:100D400028F48191DF0112978C93F1CFF801E80D1F
:100D5000F91D1582C8010596D70115969C938E93AF
:100D60001497B4016A5F7F4F600F711FCE01059623
:100D70000E940306BAE08B0E911C4D815E816F814B
:100D800078852401092C000C66087708440E551E4E
:100D9000661E771EF801E80DF91DCF01801B910B2F
:100DA000A0E0B0E084159505A605B70528F481916B
:100DB000DF0112978C93F1CF6401C40ED51EB801E8
:100DC0006C0D7D1DFB0131971082C4010197800FCE
:100DD000911FF70197838683CE0101960E94030637
:100DE000A6014C5F5F4F49805A806B807C804A012E
:100DF000052E000CAA08BB08840C951CA61CB71C69
:100E0000F801E40FF51F9F01201B310BC901A0E081
:100E1000B0E088159905AA05BB0528F48191DF018A
:100E200012978C93F0CFCA01840D951DF801E80F3D
:100E3000F91FDF0111971C929A0121503109020F0D
:100E4000131FD70119961C930E9318972181428185
:100E500050E060E070E0BA0155274427522B208112
:100E6000422B2381722BF701428753876487758752
:100E700004962C96E0E10C943D22A8E0B0E0E3E477
:100E8000F7E00C941F228C015B01DB018C91119621
:100E90009C9111971296CC901297D12CE12CF12CA9
:100EA0007601DD24CC24D92AC82A13968C91F82AFD
:100EB000F80182819381A481B5818C159D05AE05D1
:100EC000BF0570F4B601660F771F660F771F828526
:100ED00093850E94CF1CD8011B969C938E931A97E2
:100EE000F801C282D382E482F582D5011796C12C23
:100EF000D12C7601F4E08F2E912C98012A5F3F4F80
:100F0000F8014281538164817581C4010496C4163D
:100F1000D506E606F70680F54C9150E060E070E0FB
:100F2000742F662755274427FD013397E0814E2B08
:100F3000FD013297E0815E2BFD013197E0816E2B40
:100F4000F80146835783608771874C010897428573
:100F50005385840F951FF90140815181628173810E
:100F6000FC014083518362837383FFEFCF1ADF0A52
:100F7000EF0AFF0A1496C4CFF401EA0DFB1D20818D
:100F80003181C280D12CE12CF12C7601DD24CC24DE
:100F9000D32AC22A2381F22A4C01F801848595853F
:100FA000A685B7858C159D05AE05BF0570F4B60105
:100FB000660F771F660F771F848995890E94CF1C63
:100FC000D80155969C938E935497F801C486D58684
:100FD000E686F78620E030E0C12CD12C7601D801DE
:100FE0005096F8014485558566857785F501E80DAD
:100FF000F91DC4010496C416D506E606F70648F5A1
:101000009180428150E060E070E0BA0155274427AA
:10101000592990804929E3817E2BF801408B518B1F
:10102000628B738B4C0184899589FC01E20FF31F5D
:101030004D915D916D917C911397408351836283B3
:101040007383FFEFCF1ADF0AEF0AFF0A2C5F3F4FCF
:10105000C8CF20813181C280D12CE12CF12C7601C6
:10106000DD24CC24D32AC22A2381F22A4C01F801A0
:1010700086899789A08DB18D8C159D05AE05BF051C
:1010800060F4B601660F771F848D958D0E94CF1C8A
:10109000D8015D969C938E935C97F801C68AD78A97
:1010A000E08EF18E412C512C32011801FAE12F0E05
:1010B000311CF80186899789A08DB18D4816590693
:1010C0006A067B0608F05AC0B501680D791DCE018D
:1010D00001960E94030694012C5F3F4FC980DA807D
:1010E000EB80FC80C901032E000CAA0BBB0BAC01EA
:1010F000BD014C0D5D1D6E1D7F1D4D835E836F8395
:101100007887F501E20FF31FAF014A195B09CA01A5
:10111000A0E0B0E04D815E816F81788584179507EE
:10112000A607B70728F44191DF0112974C93ECCF43
:10113000C9018C0D9D1DF501E80FF91F3197108233
:10114000215031092A0D3B1DD8015B963C932E930B
:101150005A974C01C201880F991F5C96ED91FC9142
:101160005D97E80FF91FD1018D919C919183808348
:10117000BFEF4B1A5B0A6B0A7B0A9BCFC401289610
:10118000E2E10C943B22A4E0B0E0E9ECF8E00C943E
:1011900025227C018B01FB01808190E0A0E0B0E082
:1011A000F70182839383A483B583FB012181922B72
:1011B000F70182839383A483B583FB012281A22B51
:1011C000F70182839383A483B583FB012381B22B30
:1011D000F70182839383A483B583FB01848190E02C
:1011E000A0E0B0E0F70186839783A087B187FB0179
:1011F0002581922BF70186839783A087B187FB0116
:101200002681A22BF70186839783A087B187FB01F4
:101210002781B22BF70186839783A087B187FB01D3
:10122000808590E0A0E0B0E0F70182879387A487F3
:10123000B587FB012185922BF70182879387A487CD
:10124000B587FB012285A22BF70182879387A487AC
:10125000B587FB012385B22BF70182879387A4878B
:10126000B587645F7F4FCE0101960E940306898196
:101270009A81AB81BC814C015D01F0E18F0E911C24
:10128000A11CB11C680120E1C20ED11CA601401BAB
:10129000510B60E070E0481559056A057B0548F47C
:1012A000F60141916F019F0122503109F9014083FC
:1012B000EDCFF801E80FF91F1786015F1F4FF70107
:1012C0001787068740962496ECE00C944122A0E014
:1012D000B0E0EDE6F9E00C9427228C017B01029648
:1012E0000E94C308EC01B701680F791FC80142963C
:1012F0000E946B03C80FD91F680184E2C80ED11C7D
:10130000580188E4A80EB11CB601C7018C0F9D1FBF
:101310000E94C702C80FD91F84E0C80ED11CCA148E
:10132000DB0491F7B7016C0F7D1FC6010E949D037E
:10133000C80FD91F680186E5C80ED11C58018AE77D
:10134000A80EB11CB601C7018C0F9D1F0E94C702D9
:10135000C80FD91F84E0C80ED11CCA14DB0491F752
:10136000B7016C0F7D1FC6010E949D03C80FD91FD6
:10137000680188E8C80ED11C04551F4FB601C7018B
:101380008C0F9D1F0E94C702C80FD91F84E0C80E92
:10139000D11CC016D10691F7CE01CDB7DEB7EAE079
:1013A0000C944322AAE0B0E0E8EDF9E00C942D2281
:1013B0008C0188EF92E09A8389831B821C821D82B4
:1013C0001E821F82188619861A86D801ED91FC911B
:1013D0000190F081E02DAE014F5F5F4F6AE070E059
:1013E000C80109950E943D1CF801608771878287BA
:1013F00093872A96E4E00C9449224F925F926F9271
:101400007F92AF92BF92CF92DF92EF92FF920F93B3
:101410001F93CF93DF93CDB7DEB72E970FB6F89417
:10142000DEBF0FBECDBF8C0184E093E09A83898339
:101430001C821B828FEC92E09E838D8398878F8322
:101440009A8789871B861C861D861E86680188EB05
:10145000C81A8DEFD80A7801A6E8EA1AADEFFA0AA1
:1014600098E1492E55245394612C712CD601ED91AD
:10147000FC913097B9F1848195819C838B83808125
:1014800091819E838D8382819381DC01ED91FC911A
:101490000480F581E02D099598878F83D601ED9121
:1014A000FC9182819381DC01ED91FC910680F781B2
:1014B000E02D09959A8789874B865C866D867E86A6
:1014C000F80180819181F601A081B18118966D911A
:1014D0007C911997DC01ED91FC91AE014F5F5F4F5C
:1014E000C8010995B2E0CB0ED11CCE14DF0409F07F
:1014F000BDCF6801E4E5CE1AEDEFDE0A88E1482EA3
:1015000055245394612C712CF701A081B18110975F
:10151000E1F112968D919C9113979C838B83149685
:101520008D919C9115979E838D83ED91FC911197E0
:101530000480F581E02DCD01099598878F83D7012F
:101540008D919C91DC01ED91FC910680F781E02D5D
:1015500009959A8789874B865C866D867E86D80139
:10156000ED91FC91A080B180F70180819181DC0137
:10157000ED91FC910280F381E02D0995AE014F5F62
:101580005F4FBC01C801F5010995F2E0EF0EF11CB7
:10159000EC14FD0409F0B8CFF801EA54FD4F81E0E6
:1015A00080832E960FB6F894DEBF0FBECDBFDF91BD
:1015B000CF911F910F91FF90EF90DF90CF90BF9050
:1015C000AF907F906F905F904F900895AAE0B0E049
:1015D000ECEEFAE00C9425228C015B0188EF92E09E
:1015E0009A8389831B821C821D821E821F82188619
:1015F00019861A860E943D1CF801C084D184E284B9
:10160000F3849B01AC012C193D094E095F09690166
:101610007A01B501CE0101960E94E30088EE882E82
:1016200083E0982EA12CB12CC701B601A50194012D
:101630000E94F221CB80DC80ED80FE80C20ED31EA2
:10164000E41EF51ECB82DC82ED82FE829B01AC01A2
:1016500060E472E48FE090E00E94CE21CF80D884D5
:10166000E984FA84DC01CB018C0D9D1DAE1DBF1DEC
:101670008F839887A987BA870E943D1CCB80DC8026
:10168000ED80FE8031E0C31AD108E108F108A50120
:1016900094010E94F221C21AD30AE40AF50AF80161
:1016A000C486D586E686F786CF80D884E984FA8416
:1016B000F6E3DF1AF5E6EF0AF4ECFF0A9B01AC0152
:1016C00060E472E48FE090E00E94CE21C61AD70A4F
:1016D000E80AF90AF801C08AD18AE28AF38AB801D5
:1016E000605F7F4FC8010C960E9441140E943D1C10
:1016F000F801E554FD4F60837183828393832A96BA
:10170000ECE00C944122A0E1B0E0E9E8FBE00C94AD
:101710001F22988B8F870E943D1C4B015C012F85F7
:10172000388925543D4F3E832D83F9018081918175
:10173000A281B381A5019401281B390B4A0B5B0BD5
:10174000DA01C901893F9A42A105B10528F0EF8568
:10175000F889EA54FD4F10820F85188904551D4FF2
:10176000D8018D919C91892B81F0EF85F889E15406
:10177000FD4F80819181A281B38188159905AA05C9
:10178000BB0518F4F801118210826F847888FCE49C
:101790006F1AFDEF7F0A2F85388920553D4F3A8318
:1017A0002983CF84D88838E1C30ED11C4F8558894E
:1017B0004A545D4F58874F832F8538892C533D4FAE
:1017C0003A8729874F8558894D535D4F5C874B87F2
:1017D000EF84F88852E5E51A5DEFF50A2F85388920
:1017E0002E543D4F3C832B834F85588941545D4F88
:1017F0005E874D871401250154E1250E311C411CE3
:10180000511CEF85F88984899589A689B789892B28
:101810008A2B8B2B89F4AF85B88912968D919C9178
:101820001397DC01ED91FC910680F781E02D09957D
:101830009C0197FF15C037C10E943D1CDC01CB0104
:1018400088199909AA09BB09EF85F889248935897E
:1018500046895789281739074A075B07E0F64BC1C5
:10186000D3018D919C911197820F931F8D939C931F
:10187000F8014081518147305105D9F4AB81BC81D9
:101880008D919C911197AC014F5F5F4F4D935C938D
:10189000EF85F889E80FF91F208FF701808191818A
:1018A000019791838083892B09F0ABCF88E090E08A
:1018B0002FC04115510521F52F3F310569F481E015
:1018C00090E0F80191838083AD85BE852D923D9295
:1018D0004D925C92139795CF0E943D1CDC01CB0189
:1018E00088199909AA09BB0989389341A105B1054D
:1018F00008F487CFEF85F889EA54FD4F1082FBC0CA
:1019000041305105B1F42E3F310531F482E090E0D1
:10191000D8018D939C9375CFF80111821082AF810D
:10192000B8858C9181116DCF8F8598890E94D209DD
:1019300068CF4230510569F4F70131832083AB81D0
:10194000BC811D921C9283E090E0F801918380831A
:101950002EC04330510561F4322F2227F7018081D8
:101960009181280F391F3183208384E090E0D0CF0C
:101970004430510581F460E071E00E94DE218F3F28
:10198000910531F485E090E0F8019183808339CFAF
:101990001182108236CF4530510569F4E981FA8110
:1019A00031832083E6E0F0E0D801ED93FC93D3018E
:1019B0002D933C9326CF4630510599F4322F2227A0
:1019C000E981FA8180819181280F391F3183208339
:1019D000E7E0F0E0D801ED93FC93D7018D919C9165
:1019E00062CF4830510509F00CCFF8011182108206
:1019F00060E071E00E94DE218F3F910509F001CF88
:101A0000A981BA818D919C910097C9F48F8598899D
:101A10000E94D2098F8598890E94FD09EF85F88977
:101A2000E954FD4F80829182A282B382ED81FE81D2
:101A300080829182A282B3828FEF9FEF61C08A3051
:101A4000910531F4B6018F8598890E94E60AD9CEB6
:101A50008630910551F4B60189859A850E943D072B
:101A600081E0AB85BC858C93CCCE8B30910521F485
:101A7000EF81F8851082C5CEFC01E752FF4FEE0FD3
:101A8000FF1F2F853889E20FF31F80819181009716
:101A900009F4B7CEDC01ED91FC910190F081E02DCD
:101AA000B6010995AECEEF85F889EA54FD4F8081E5
:101AB000882321F10F85188909541D4FF801808171
:101AC0009181A281B381A5019401281B390B4A0B96
:101AD0005B0BDA01C901853C9940A105B10570F0A5
:101AE0008F8598890E94D209D8018D929D92AD92DE
:101AF000BC92139703C08EEF9FEF02C080E090E08E
:101B00006096E2E10C943B2282E897E00E9439154E
:101B10008AE597E00E94391588E593E090934704A1
:101B2000809346048AE698E09093490480934804A1
:101B300080E091EEA0E0B0E080934A0490934B04E3
:101B4000A0934C04B0934D041092FC068CE193E0FA
:101B500090930B0780930A0710920C0710920D07C1
:101B600010920E0710920F0710921507109214078B
:101B70001092160710921707109218071092190763
:101B800010921F0710921E07109220071092210733
:101B9000109222071092230710922707109226070F
:101BA000EEE8F6E01192119286E0E03CF807D1F7FA
:101BB000E0ECF6E01192119286E0E23FF807D1F7EF
:101BC000EEE5F4E0119285E0E637F807D9F7E6E7AD
:101BD000F5E0119286E0EE38F807D9F710925A0432
:101BE00010925B0410925C0410925D048CE493E00C
:101BF000909389038093880388E293E090938B030A
:101C000080938A0310928C0310928D0310928E039E
:101C100010928F03109290031092910310929203EE
:101C200010929303109294031092950310929603CE
:101C3000109297038FEC92E090939903809398030E
:101C400084E393E090939B0380939A0310929C0308
:101C500010929D0310929E0310929F031092A00376
:101C60001092A1031092A2031092A3031092A40356
:101C70001092A5031092A6031092A7031092A80336
:101C80001092A9031092AA031092AB03ECEAF3E0BE
:101C9000119211921192119283E0E03DF807C1F781
:101CA00080E493E09093D1038093D0031092D20309
:101CB0001092D3031092D4031092D5031092D6033E
:101CC0001092D7031092D8031092D9031092DA031E
:101CD0001092DB031092DC031092DD03EEEDF3E0D3
:101CE000119211921192119284E0E230F807C1F73B
:101CF00080E493E090930304809302041092040420
:101D00001092050410920604109207041092080421
:101D10001092090410920A0410920B0410920C0401
:101D200010920D0410920E0410920F04E0E1F4E002
:101D3000119211921192119284E0E433F807C1F7E5
:101D400080ED92E090937F0380937E0388E893E098
:101D500090938103809380031092870310928603EF
:101D60000895EF92FF921F93CF93DF9300D0CDB7EA
:101D7000DEB7182F7B0168E68AEA97E02A83498359
:101D80000E941715612F8AEA97E00E94BF144981CB
:101D900050E0B7018AEA97E00E9495142A81622FE9
:101DA0008AEA97E00E942115182F882369F06CECCD
:101DB00070E08AE698E00E94EC1A4AE050E0612F59
:101DC0008AE698E00E94831B812F0F900F90DF918D
:101DD000CF911F91FF90EF900895A1E0B0E0E3EF65
:101DE000FEE00C942F226983242F41E0BE016F5F37
:101DF0007F4F0E94B10E2196E2E00C944B228F920D
:101E00009F92AF92BF92FF920F931F93CF93DF9356
:101E1000C82F062FB72E142F68E68AEA97E00E9493
:101E200017156C2F8AEA97E00E94BF1460E08AEAD7
:101E300097E00E942115C82F882379F06BEB70E0A2
:101E40008AE698E00E94EC1A4AE050E06C2F8AE69D
:101E500098E00E94831B8C2F42C021E0412F68E64E
:101E60008AEA97E00E940A15F02EC02FDB2D8C2FF6
:101E70008F19811728F58AEA97E00E946914892B47
:101E8000C1F40E94491C4B015C010E94491CDC0109
:101E9000CB0188199909AA09BB09883E9340A1057D
:101EA000B10580F48AEA97E00E946914892B69F3EE
:101EB00009C08AEA97E00E94711488832196D7CFDF
:101EC00080E00DC08AEA97E00E946914892B89F7A7
:101ED0006BEA70E08AE698E00E94291B85E0DF91BA
:101EE000CF911F910F91FF90BF90AF909F908F90D7
:101EF00008954F925F926F927F928F929F92AF92CE
:101F0000BF92CF92DF92EF92FF92CF93DF9300D0F8
:101F100000D0CDB7DEB740914A0450914B04609198
:101F20004C0470914D0480914804909149040E94A2
:101F3000F6191092F3061092F2061092F50610921E
:101F4000F4061092F9061092F8061092F706109215
:101F5000F606EEE8F6E080E090E021913191232B47
:101F6000B1F4FC01EE0FFF1FE257F94F2EE733E00B
:101F70003183208383589F4F909383038093820300
:101F800086E494E0909385038093840304C00196D3
:101F90008931910511F78AEA97E00E94FF148CE0DD
:101FA0008093B80087E08093340410923504109237
:101FB00036041092370420E044E064E374E089E1E1
:101FC0000E94B10E8111F7CF41E061E08BE60E94E3
:101FD000ED0E8111F9CF41E064E374E085E70E94E2
:101FE000FF0E8111F8CF80913404883639F066E90C
:101FF00070E08AE698E00E94EC1AFFCF64E670E099
:1020000080E090E00E946E1C46E064E374E08BE3A5
:102010000E94FF0E8111F8CF6091340470E0762F9A
:10202000662780913504682B072E000C880B990BCE
:102030000E941E2069837A838B839C83609356075A
:10204000709357078093580790935907609136040F
:1020500070E0762F662780913704682B072E000CDE
:10206000880B990B0E941E204B015C016093520764
:1020700070935307809354079093550760913804E9
:1020800070E0762F662780913904682B072E000CAC
:10209000880B990B0E941E206B017C0160934E07F8
:1020A00070934F0780935007909351079B01AC01A9
:1020B000C501B4010E94461F21EE3EE245E652E40E
:1020C0000E9402212B013C01A5019401C501B4012C
:1020D0000E9402214B015C01A7019601C701B601D4
:1020E0000E9402219B01AC01C501B4010E94C71EE0
:1020F0000E9475219B01AC0169817A818B819C8151
:1021000090580E94AA1F0E94761F21EE3EE245E6EB
:1021100052E40E9402216B017C01B301A20182E81A
:1021200097E00E94C116B701A6018AE597E00E94D8
:10213000C11640923C0750923D0760923E07709254
:102140003F07C0923807D0923907E0923A07F092E1
:102150003B074092340750923507609236077092E1
:102160003707C0923007D0923107E0923207F092E1
:1021700033070E94491C6093420470934304809388
:102180004404909345040F900F900F900F90DF91AF
:10219000CF91FF90EF90DF90CF90BF90AF909F9046
:1021A0008F907F906F905F904F900895A0E1B0E086
:1021B000ECEDF0E10C9421224EE064E374E08BE35B
:1021C0000E94FF0E8111F8CF6091340470E0762FE9
:1021D000662780913504682B072E000C880B990B1D
:1021E0000E941E20609356077093570780935807EC
:1021F000909359076091360470E0762F662780919E
:102200003704682B072E000C880B990B0E941E20A8
:102210006093520770935307809354079093550728
:102220006091380470E0762F662780913904682B1E
:10223000072E000C880B990B0E941E2060934E07FE
:1022400070934F07809350079093510780913A0401
:1022500090E0982F882720913B04822B9093410790
:102260008093400760913C0470E0762F6627809150
:102270003D04682B072E000C880B990B0E941E2032
:1022800060934A0770934B0780934C0790934D07D8
:1022900060913E0470E0762F662780913F04682BA2
:1022A000072E000C880B990B0E941E206093460796
:1022B00070934707809348079093490760914004C3
:1022C00070E0762F662780914104682B072E000C62
:1022D000880B990B0E941E2060934207709343075E
:1022E00080934407909345070E94491CC090420484
:1022F000D0904304E0904404F09045046C197D09AB
:102300008E099F090E941C2020E034E244E759E432
:102310000E94AA1F69837A838B839C830E94491C35
:102320006093420470934304809344049093450463
:10233000C0904E07D0904F07E0905007F0905107A3
:102340008090520790905307A0905407B090550783
:10235000A7019601C501B4010E94461F21EE3EE28D
:1023600045E652E40E9402212B013C01A5019401A3
:10237000C501B4010E9402214B015C01A701960135
:10238000C701B6010E9402219B01AC01C501B40145
:102390000E94C71E0E9475219B01AC0180915607C7
:1023A00090915707A0915807B0915907BC01CD01F2
:1023B00090580E94AA1F0E94761F21EE3EE245E639
:1023C00052E40E9402216D877E878F87988B20E0E0
:1023D00030E043E053E460914A0770914B078091ED
:1023E0004C0790914D070E94AA1F6D837E838F83B7
:1023F000988720E030E043E053E460914607709115
:10240000470780914807909149070E94AA1F4B01F6
:102410005C0120E030E044EB52ECC301B2010E94C9
:10242000A51F87FF10C020E030E044EB52E460912C
:102430002C0770912D0780912E0790912F070E94F5
:10244000F5201816D4F020E030E044EB52E4C3014C
:10245000B2010E94F52018167CF520E030E044EB34
:1024600052EC60912C0770912D0780912E0790916E
:102470002F070E94A51F87FF1FC0B301A20182E89A
:1024800097E00E94C116409234075092350760923F
:1024900036077092370740922C0750922D076092B2
:1024A0002E0770922F0740923C0750923D07609292
:1024B0003E0770923F0716C0C980DA80EB80FC802F
:1024C0000D811E812F813885B301A20182E897E03A
:1024D0000E946B1560932C0770932D0780932E0735
:1024E00090932F07C0902C07D0902D07E0902E07D7
:1024F000F0902F0720E030E0A901C701B6010E944B
:10250000F52018165CF420E030E044EB52E4C701FB
:10251000B6010E94F52018165CF00EC020E030E0F5
:1025200044EB52ECC701B6010E94A51F87FF04C00F
:10253000B7FAB094B7F8B094C980DA80EB80FC8029
:10254000950184014D855E856F8578898AE597E0E0
:102550000E946B1569877A878B879C876093280711
:102560007093290780932A0790932B0729813A813A
:102570004B815C816D817E818F8198850E940221D3
:102580006D837E838F83988720913C0730913D0730
:1025900040913E0750913F070E94C71E6B017C018E
:1025A00060933C0770933D0780933E0790933F07ED
:1025B00029813A814B815C81C501B4010E940221CD
:1025C00069837A838B839C83209138073091390704
:1025D00040913A0750913B070E94C71E4B015C0196
:1025E000609338077093390780933A0790933B07BD
:1025F00020913407309135074091360750913707C5
:102600006D817E818F8198850E94C71E2BE734E102
:102610004EE65FE30E9402216D837E838F8398875D
:1026200029E23CE54FE85DE3C301B2010E940221CB
:102630009B01AC016D817E818F8198850E94C71EB0
:10264000609334077093350780933607909337076C
:102650002091300730913107409132075091330774
:1026600069817A818B819C810E94C71E2BE734E1AE
:102670004EE65FE30E9402212B013C0129E23CE58A
:102680004FE85DE36D857E858F8598890E940221E4
:102690009B01AC01C301B2010E94C71E60933007C9
:1026A00070933107809332079093330720E030E036
:1026B00044E353ECC701B6010E94A51F40902C07CC
:1026C00050902D0760902E0770902F0787FD0AC04D
:1026D00020E030E044E353E4C701B6010E94F52056
:1026E000181644F440923C0750923D0760923E0712
:1026F00070923F0720E030E044E353ECC501B401A1
:102700000E94A51F87FD0AC020E030E044E353E4A7
:10271000C501B4010E94F520181664F489859A85D4
:10272000AB85BC858093380790933907A0933A070F
:10273000B0933B078091560790915707A091580797
:10274000B09159078093040490930504A093060464
:10275000B09307048091520790915307A0915407BA
:10276000B09155078093080490930904A0930A043C
:10277000B0930B0480914E0790914F07A0915007A2
:10278000B091510780930C0490930D04A0930E0414
:10279000B0930F0480914A0790914B07A0914C078A
:1027A000B0914D078093D2039093D303A093D403A9
:1027B000B093D5038091460790914707A0914807B1
:1027C000B09149078093D6039093D703A093D80381
:1027D000B093D9038091420790914307A091440799
:1027E000B09145078093DA039093DB03A093DC0359
:1027F000B093DD0389859A85AB85BC8580939C0366
:1028000090939D03A0939E03B0939F034092A003D7
:102810005092A1036092A2037092A30380E090E023
:10282000A0E8BFEB8093A4039093A503A093A60315
:10283000B093A7038093A8039093A903A093AA033E
:10284000B093AB038091840390918503DC01ED91FB
:10285000FC9160918203709183030190F081E02DDF
:1028600048E853E0099586E494E00E94830B62E017
:1028700070E080E090E00E946E1C6096E0E10C94B5
:102880003D22A0E0B0E0E7E4F4E10C9429228C01C1
:10289000EB01688179818A819B8120E03AEC4AE9E9
:1028A0005BE30E94F221F801C080D180E280F380D6
:1028B000C20ED31EE41EF51EC082D182E282F382D4
:1028C000688379838A839B83CDB7DEB7E8E00C9475
:1028D00045228091DA0790E02091DB07821B910965
:1028E00008959091DB078091DA07981750F4E92F4B
:1028F000F0E0E452F84F208130E09F5F9093DB07D7
:1029000002C02FEF3FEFC9010895E091DB078091EE
:10291000DA07E81730F4F0E0E452F84F808190E0F5
:1029200008958FEF9FEF08950895A0E0B0E0EBE9E0
:10293000F4E10C9429227C01262F972F8A018091A3
:10294000B607882391F0C62FD72F6E01C40ED51E6F
:10295000CC15DD0571F06991D701ED91FC910190E5
:10296000F081E02DC7010995F3CF642F822F0E94DB
:102970007B17C801CDB7DEB7E8E00C944522A1E093
:10298000B0E0E5ECF4E10C942F2269832091B607C6
:102990002223D1F02091B707203240F021E030E02F
:1029A000FC013383228380E090E015C08091B8075A
:1029B000E82FF0E0E754F84F998190838F5F809380
:1029C000B8078093B70705C061E0CE0101960E9469
:1029D0007B1781E090E02196E2E00C944B22FC0111
:1029E0001382128288EE93E0A0E0B0E084839583A6
:1029F000A683B78382E693E0918380830895109243
:102A0000DB071092DA071092B8071092B7070E94FE
:102A1000C7160895862F413208F040E26CED77E04A
:102A20000E94E5161092DB078093DA07089581E093
:102A30008093B6076093D9071092B8071092B70732
:102A400008950F93062F21E04091B70769EB77E0D7
:102A50008091D9070E9429171092B8071092B707E2
:102A60001092B6070F9108958AEA97E00E94EF143A
:102A70000895FC018FE692E1A3E8BAE38083918395
:102A8000A283B38386EA9BE9A4E4BBE384839583B2
:102A9000A683B7838FE892ECA5EFBCE3808791878C
:102AA000A287B3871486158616861786108A118A20
:102AB000128A138A108E118E128E138E148E158E1A
:102AC000168E178E10A211A212A213A214A215A282
:102AD00016A217A20895ACE1B0E0E1E7F5E10C948D
:102AE0001F221C014D8B5E8B6F8B788FC901B80143
:102AF000D10150962D913D914D915C915397298B29
:102B00003A8B4B8B5C8B0E94C61E9B01AC01F10182
:102B1000648B758B868B978BC701B6010E9402214F
:102B2000D1011C962D913D914D915C911F970E9472
:102B3000C71E6D877E878F87988BD10194962D91C4
:102B40003D914D915C9197972D833E834F8358879C
:102B5000C701B6010E9402214B015C01F101448CC6
:102B6000558C668C778C20A131A142A153A1298775
:102B70003A874B875C87A30192010E94C61E298574
:102B80003A854B855C850E94C61EF101208131810A
:102B9000428153810E94C71E9B01AC01C701B6014F
:102BA0000E940221D10158962D913D914D915C9149
:102BB0005B970E94C71E69837A838B839C83A501E0
:102BC0009401C301B2010E94C61E2B013C01A50164
:102BD000940169857A858B859C850E94C61E6987CC
:102BE0007A878B879C87F1012481358146815781C3
:102BF000C701B6010E9402219B01AC016D817E815B
:102C00008F8198850E94C71E698F7A8F8B8F9C8FCA
:102C1000D10118962D913D914D915C911B97698141
:102C20007A818B819C810E94C71E6B017C019B0174
:102C3000AC0169817A818B819C810E94AA1F4B0122
:102C40005C01A701960169857A858B859C850E9428
:102C5000AA1F6B017C012D853E854F8558896D89A2
:102C60007E898F89988D0E94C61E6D837E838F8397
:102C700098879B01AC01C501B4010E9402219B0110
:102C8000AC016D857E858F8598890E94C71E6D87F2
:102C90007E878F87988BF1016487758786879787F2
:102CA0002D813E814F815885C701B6010E940221C6
:102CB0009B01AC0169897A898B899C890E94C71E16
:102CC000D10150966D937D938D939C935397298159
:102CD0003A814B815C81C501B4010E9402219B01B4
:102CE000AC0169817A818B819C810E94C61EF101B1
:102CF000608F718F828F938FA3019201C501B40100
:102D00000E9402219B01AC01C301B2010E94C61EB8
:102D1000D1015C966D937D938D939C935F972981F0
:102D20003A814B815C81C701B6010E9402219B015F
:102D3000AC0169857A858B859C850E94C61EF10150
:102D400060A371A382A393A3A3019201C701B6015B
:102D50000E9402219B01AC01698D7A8D8B8D9C8D27
:102D60000E94C61ED10194966D937D938D939C9382
:102D700097976D857E858F8598896C96E2E10C9496
:102D80003B22FC0144875587668777870895109218
:102D9000690881E0809367081092660861E082E12B
:102DA0000E94C31B61E083E10E94C31BE9EBF0E0DA
:102DB00080818E7F808380818D7F808388E4809373
:102DC000B80085E48093BC000895413208F03FC00C
:102DD000909169089111FCCF91E09093690820933C
:102DE00067082FEF2093FC0710924108240F2093CF
:102DF00040089093680890916808880F892B809309
:102E0000680880916608813041F4109266088091CC
:102E100068088093BB0085EC01C085EE8093BC0000
:102E2000809169088130E1F380914108841710F4A2
:102E30004091410822E438E0FB01D9018A2F821B2E
:102E4000841718F48D918193F9CF842F089580E031
:102E500008950F93413208F046C09091690891118E
:102E6000FCCF32E030936908009367083FEF30935E
:102E7000FC071092410840934008FB0162E478E0AF
:102E8000DB013A2F361B341718F431913D93F9CFFB
:102E90001092680830916808880F832B8093680827
:102EA00080916608813041F410926608809168082C
:102EB0008093BB0085EC01C085EE8093BC0022238B
:102EC00021F0809169088230D1F38091FC078F3F17
:102ED00079F08091FC07803241F08091FC078033CB
:102EE00031F094E005C091E003C092E001C093E0AE
:102EF000892F0F910895613298F420916908243048
:102F000089F460931E08FC0120E238E0D9018A2F81
:102F1000821B861718F481918D93F9CF80E0089574
:102F200081E0089582E0089585ED8093BC00809152
:102F3000BC0084FDFCCF10926908089585EC809355
:102F4000BC001092690808951F920F920FB60F925D
:102F500011242F933F934F935F936F937F938F939E
:102F60009F93AF93BF93EF93FF938091B900887FB6
:102F7000803609F49CC068F5883209F45BC090F48F
:102F8000803109F454C038F4882309F4F5C088303E
:102F900009F44DC0F5C0883109F44CC0803209F401
:102FA0005DC0EEC0803409F468C048F4803309F491
:102FB00055C0883309F0E4C08093FC07A8C0803571
:102FC00009F44FC0883509F45DC0883409F0D8C0D1
:102FD000D5C0883909F4C6C0A8F4883709F467C099
:102FE00038F4883609F463C0803709F460C0C8C07B
:102FF000883809F4B7C0803909F45FC0803809F017
:10300000BFC05BC0803B09F485C038F4803A09F446
:1030100066C0883A09F47EC0B3C0803C09F4A6C0FB
:10302000883C09F4A3C0883B09F489C0A9C08091F9
:10303000680810C09091410880914008981770F579
:10304000E091410881E08E0F80934108F0E0EE5B53
:10305000F74F80818093BB0085EC85C08093FC078F
:103060008DC0E091410881E08E0F809341088091EE
:10307000BB00F0E0EE5BF74F8083909141088091B8
:1030800040086DC0E091410881E08E0F80934108B7
:103090008091BB00F0E0EE5BF74F80838091670882
:1030A00081116CC081E08093660884EA60C083E08F
:1030B000809369081092FD07CFCF8091FD07803281
:1030C00008F050C0E091FD0781E08E0F8093FD076E
:1030D0008091BB00F0E0E250F84F8083BDCF80913B
:1030E000FD07803230F4E091FD07F0E0E250F84F48
:1030F00010820E9494176091FD0770E0E0916208D1
:10310000F09163088EEF97E009951092FD070E94F9
:103110009E1736C084E08093690810921F081092B1
:103120001E08E0916408F0916508099580911E08D9
:10313000811105C081E080931E0810922008E09163
:103140001F0881E08E0F80931F08F0E0E05EF74FCC
:1031500080818093BB0090911F0880911E08981772
:1031600008F47ACF85E88093BC000AC085EC809390
:10317000BC001092690804C01092FC070E949417CA
:10318000FF91EF91BF91AF919F918F917F916F913F
:103190005F914F913F912F910F900FBE0F901F9015
:1031A00018950E94941C0E94790FC2EBD9E10E94ED
:1031B000D6102097E1F30E94B219F9CFFC012485C3
:1031C0003585F901E05CFF4F808191813296208145
:1031D0003181821B930B8F7399270895DC011C9614
:1031E000ED91FC911D97DF01A05CBF4F2D913C91AB
:1031F000119712968D919C9111972817390739F0E4
:103200008D919C91E80FF91F808190E008958FEFD8
:103210009FEF0895FC01A485B585FD01E05CFF4F9B
:10322000208131813296808191812817390779F088
:1032300080819181A80FB91F8C91208131812F5FEE
:103240003F4F2F7333273183208390E008958FEF12
:103250009FEF0895FC0181A1882329F0A489B589F5
:103260008C9186FFFBCF11A208950F931F93CF93EC
:10327000DF93FC01A685B7858D01005C1F4FE80137
:103280008881998101968F739927AD014E5B5F4FBD
:10329000EA012881398182179307D1F3E801288157
:1032A0003981A20FB31F6C93A685B785A05CBF4F71
:1032B00011969C938E93A689B7892C9181E090E01A
:1032C000078C02C0880F991F0A94E2F7822B8C9317
:1032D00081E081A30488F589E02D8081806480836A
:1032E00081E090E0DF91CF911F910F9108950895B3
:1032F0001F920F920FB60F9211242F934F935F934B
:103300008F939F93EF93FF938091C00082FD1CC029
:103310002091C600809110099091110901968F7338
:10332000992740911209509113098417950771F05C
:10333000E0911009F0911109E053F74F2083909329
:1033400011098093100902C08091C600FF91EF918E
:103350009F918F915F914F912F910F900FBE0F9082
:103360001F9018958AE698E00E94DE18892B11F0CC
:103370000E94771908951F920F920FB60F92112491
:103380002F933F938F939F93EF93FF932091CC08BC
:103390003091CD088091CE089091CF082817390739
:1033A00031F48091C1008F7D8093C10014C0E09101
:1033B000CE08F091CF08E457F74F20818091CE08D6
:1033C0009091CF0801968F7399279093CF0880939F
:1033D000CE082093C600FF91EF919F918F913F916E
:1033E0002F910F900FBE0F901F901895A0E0B0E0A6
:1033F000ECEFF9E10C942922EC016A017B01411503
:10340000514E6105710511F1EC89FD8981E090E073
:1034100008A002C0880F991F0A94E2F7808360E039
:1034200079E08DE390E0A70196010E94F2218901E5
:103430009A010150110921093109369527951795EF
:1034400007959801011580E11807A8F0EC89FD891E
:10345000108260E874E88EE190E0A70196010E9476
:10346000F221DA01C9010197A109B109B695A79521
:10347000979587959C01E889F9893083EA89FB89CA
:10348000208319A2EE89FF89408181E090E09C01B0
:103490000C8C02C0220F331F0A94E2F7242B2083E6
:1034A000EE89FF8940819C010D8C02C0220F331FE1
:1034B0000A94E2F7242B2083EE89FF8940819C0146
:1034C0000E8C02C0220F331F0A94E2F7242B2083B4
:1034D000EE89FF8920810F8C02C0880F991F0A9402
:1034E000E2F7809582238083CDB7DEB7E8E00C94C5
:1034F0004522EAE6F8E01382128288EE93E0A0E02B
:10350000B0E084839583A683B78382E793E09183B9
:10351000808380ED98E0958784878CE898E0978792
:10352000868785EC90E0918B808B84EC90E0938B88
:10353000828B80EC90E0958B848B81EC90E0978B74
:10354000868B82EC90E0918F808F86EC90E0938F59
:10355000828F84E0848F83E0858F87E0868F85E08B
:10356000878F81E080A30895A0E0B0E0EAEBFAE164
:103570000C9429226C01EB017B01E40EF51E00E0A6
:1035800010E0CE15DF0561F06991D601ED91FC9157
:103590000190F081E02DC6010995080F191FF1CFA8
:1035A000C801CDB7DEB7E8E00C944522611571057E
:1035B00081F0FB0101900020E9F73197AF01461B34
:1035C000570BDC01ED91FC910280F381E02D099510
:1035D000089580E090E00895EF92FF920F931F937B
:1035E000CF93DF937C01FB0100E010E06491EF01D9
:1035F0002196662361F0D701ED91FC910190F08155
:10360000E02DC7010995080F191FFE01EFCFC80172
:10361000CDB7DEB7E6E00C944722DC01ED91FC91DA
:103620000190F081E02D099508950F931F93CF939A
:10363000DF93EC016DE00E940D1B8C016AE0CE016E
:103640000E940D1B800F911FDF91CF911F910F9151
:1036500008950F931F93CF93DF93EC010E94EC1A10
:103660008C01CE010E94151B800F911FDF91CF911D
:103670001F910F910895A1E2B0E0E1E4FBE10C9409
:1036800025226C01142FE52FCB01022F19A2223025
:1036900008F40AE07E0121E2E20EF11C802E912C5A
:1036A000A12CB12C612F7E2FA50194010E94F22143
:1036B000029F1019112481E0E81AF1081A3014F45D
:1036C000105D01C0195CF7011083122FE32FCA01AE
:1036D000232B242B252B31F7B701C6010E94D61AC4
:1036E000A196ECE00C9441222115310549F4DC014E
:1036F000ED91FC910190F081E02D642F09950895E2
:103700000E943B1B08950F931F93CF93DF93EC010F
:103710009A01462F50E060E070E00E94741B8C011B
:10372000CE010E94151B800F911FDF91CF911F9139
:103730000F910895833081F028F4813099F0823020
:10374000A1F008958630A9F08730B9F08430D1F423
:10375000809180008F7D03C0809180008F7780935F
:103760008000089584B58F7702C084B58F7D84BDB5
:1037700008958091B0008F7703C08091B0008F7D55
:103780008093B00008951F93CF93DF93282F30E0EC
:10379000F901E252FF4F8491F901EE50FF4FD491AD
:1037A000F901EA5FFE4FC491CC23C9F0162F8111B5
:1037B0000E949A1BEC2FF0E0EE0FFF1FE65EFE4F1B
:1037C000A591B4918FB7F894111105C09C91ED2F7C
:1037D000E095E92302C0EC91ED2BEC938FBFDF91D4
:1037E000CF911F9108951F920F920FB60F9211243F
:1037F0002F933F938F939F93AF93BF93809115091E
:1038000090911609A0911709B091180930911409E7
:1038100023E0230F2D3720F40196A11DB11D05C013
:1038200026E8230F0296A11DB11D20931409809351
:10383000150990931609A0931709B0931809809160
:10384000190990911A09A0911B09B0911C090196C0
:10385000A11DB11D8093190990931A09A0931B090A
:10386000B0931C09BF91AF919F918F913F912F9180
:103870000F900FBE0F901F9018952FB7F89460917E
:1038800015097091160980911709909118092FBF99
:1038900008953FB7F8948091190990911A09A09161
:1038A0001B09B0911C0926B5A89B05C02F3F19F034
:1038B0000196A11DB11D3FBFBA2FA92F982F8827B0
:1038C000820F911DA11DB11DBC01CD0142E0660F0B
:1038D000771F881F991F4A95D1F70895CF92DF92DD
:1038E000EF92FF92CF93DF936B017C010E94491C02
:1038F000EB01C114D104E104F10479F00E94491CE8
:103900006C1B7D0B683E7340A0F381E0C81AD108A0
:10391000E108F108C851DC4FECCFDF91CF91FF9067
:10392000EF90DF90CF900895789484B5826084BD45
:1039300084B5816084BD85B5826085BD85B58160B3
:1039400085BDEEE6F0E0808181608083E1E8F0E013
:103950001082808182608083808181608083E0E842
:10396000F0E0808181608083E1EBF0E08081846021
:103970008083E0EBF0E0808181608083EAE7F0E023
:103980008081846080838081826080838081816087
:1039900080838081806880831092C1000895A0E0B8
:1039A000B0E0E5EDFCE10C942322EC01009721F45A
:1039B000CB010E94991DB8C0FC01E60FF71F9C01C6
:1039C00022503109E217F30708F4ACC0D9010D9178
:1039D0001C91119706171707B0F00530110508F470
:1039E0009FC0C80104978617970708F499C0025032
:1039F0001109061B170B019311936D937C93CF0153
:103A00000E942E1E8DC05B01A01AB10A4C01800ECF
:103A1000911EA0911F09B091200940E050E0E12CD7
:103A2000F12C109709F44AC0A815B905D1F56D908D
:103A30007C901197630182E0C80ED11CCA14DB048C
:103A400080F1A3014A195B096A0182E0C80ED11C0A
:103A50001296BC9012971396AC91B5E0CB16D10498
:103A600040F0B282A38351834083D9016D937C934C
:103A70000AC00E5F1F4FC301800F911FF901918390
:103A80008083EB2DFA2FE114F10431F0D701139666
:103A9000FC93EE93129744C0F0932009E0931F0922
:103AA0003FC08D919C9111974817590708F4AC01BC
:103AB0007D0112960D90BC91A02DB3CF80911D0970
:103AC00090911E0988159905E1F446175707C8F427
:103AD0008091000190910101009741F48DB79EB74C
:103AE0004091040150910501841B950BE817F907DB
:103AF000C8F4F0931E09E0931D09F90171836083F6
:103B00000FC0CB010E94991D7C01009759F0A801BC
:103B1000BE010E947F22CE010E942E1EC70104C05A
:103B2000CE0102C080E090E0CDB7DEB7EEE00C94AD
:103B30003F22CF93DF938230910510F482E090E032
:103B4000E0911F09F091200920E030E0C0E0D0E0D2
:103B5000309711F14081518148175907C0F048173B
:103B6000590761F482819381209719F09B838A839E
:103B70002BC09093200980931F0926C02115310581
:103B800019F04217530718F49A01BE01DF01EF0143
:103B90000280F381E02DDCCF2115310509F1281BCE
:103BA000390B2430310590F412968D919C91139726
:103BB0006115710521F0FB019383828304C090930A
:103BC000200980931F09FD01329644C0FD01E20FD8
:103BD000F31F81939193225031092D933C933AC066
:103BE00020911D0930911E09232B41F420910201DF
:103BF0003091030130931E0920931D09209100018B
:103C0000309101012115310541F42DB73EB74091A6
:103C1000040150910501241B350BE0911D09F09121
:103C20001E09E217F307A0F42E1B3F0B28173907D4
:103C300078F0AC014E5F5F4F2417350748F04E0F08
:103C40005F1F50931E0940931D098193919302C0F9
:103C5000E0E0F0E0CF01DF91CF9108950F931F9343
:103C6000CF93DF93009709F48CC0FC013297138245
:103C7000128200911F09109120090115110581F48C
:103C800020813181820F931F20911D0930911E09DF
:103C90002817390779F5F0931E09E0931D0971C0C3
:103CA000D80140E050E0AE17BF0750F412962D91B6
:103CB0003C911397AD012115310509F1D901F3CFDD
:103CC0009D01DA013383228360817181860F971F02
:103CD0008217930769F4EC0128813981260F371F79
:103CE0002E5F3F4F318320838A819B819383828320
:103CF000452B29F4F0932009E0931F0942C0139645
:103D0000FC93EE931297ED01499159919E01240F76
:103D1000351FE217F30771F480819181840F951F9D
:103D2000029611969C938E938281938113969C9315
:103D30008E931297E0E0F0E0D80112968D919C915D
:103D40001397009719F0F8018C01F6CF8D919C9193
:103D500098012E5F3F4F820F931F20911D093091D4
:103D60001E092817390769F4309729F410922009A1
:103D700010921F0902C01382128210931E09009331
:103D80001D09DF91CF911F910F9108955058BB27C6
:103D9000AA270E94DE1E0C94BB200E94AD2038F0A2
:103DA0000E94B42020F039F49F3F19F426F40C94BB
:103DB00083200EF4E095E7FB0C947D20E92F0E9410
:103DC000CC2058F3BA17620773078407950720F0D1
:103DD00079F4A6F50C94EE200EF4E0950B2EBA2F94
:103DE000A02D0B01B90190010C01CA01A001112401
:103DF000FF27591B99F0593F50F4503E68F11A16AD
:103E0000F040A22F232F342F4427585FF3CF46953D
:103E100037952795A795F0405395C9F77EF41F165F
:103E2000BA0B620B730B840BBAF09150A1F0FF0F29
:103E3000BB1F661F771F881FC2F70EC0BA0F621F15
:103E4000731F841F48F4879577956795B795F79505
:103E50009E3F08F0B0CF9395880F08F09927EE0F9A
:103E60009795879508950E94AD2060F080E891E0D5
:103E700009F49EEF0E94B42028F040E851E071F46C
:103E80005EEF0CC00C9483200C94EE20E92FE078B8
:103E90000E94CC2040F3092E052AB1F326173707DC
:103EA0004807590738F00E2E07F8E02569F0E0259D
:103EB000E0640AC0EF6307F8009407FADB01B90178
:103EC0009D01DC01CA01AD01EF930E94C11F0E9458
:103ED000BB200E94761F5F91552339F02BED3FE008
:103EE00049E450FD49EC0C94C71E0895DF93DD278B
:103EF000B92FBF7740E85FE31616170648075B0740
:103F000018F4D92F0E94FA209F938F937F936F9379
:103F10000E94B521E8E6F0E00E9486200E94BB20C6
:103F20002F913F914F915F910E941521DD2351F018
:103F30009058A2EA2AED3FE049EC5FE3D0785D2794
:103F40000E94DE1EDF910C94BB200E94592008F4D1
:103F500081E008950E94BE1F0C94BB200E94B420F3
:103F600058F00E94AD2040F029F45F3F29F00C94F6
:103F70007D2051110C94EF200C9483200E94CC20C2
:103F800068F39923B1F3552391F3951B550BBB2788
:103F9000AA2762177307840738F09F5F5F4F220FCD
:103FA000331F441FAA1FA9F335D00E2E3AF0E0E8C4
:103FB00032D091505040E695001CCAF72BD0FE2F0E
:103FC00029D0660F771F881FBB1F261737074807A2
:103FD000AB07B0E809F0BB0B802DBF01FF2793585A
:103FE0005F4F3AF09E3F510578F00C947D200C9481
:103FF000EF205F3FE4F3983ED4F38695779567957D
:10400000B795F7959F5FC9F7880F911D969587958E
:1040100097F90895E1E0660F771F881FBB1F6217AD
:1040200073078407BA0720F0621B730B840BBA0B6B
:10403000EE1F88F7E0950895E89409C097FB3EF4D9
:1040400090958095709561957F4F8F4F9F4F9923E5
:10405000A9F0F92F96E9BB279395F6958795779563
:104060006795B795F111F8CFFAF4BB0F11F460FF23
:104070001BC06F5F7F4F8F4F9F4F16C0882311F07B
:1040800096E911C0772321F09EE8872F762F05C08F
:10409000662371F096E8862F70E060E02AF09A952A
:1040A000660F771F881FDAF7880F9695879597F91F
:1040B0000895990F0008550FAA0BE0E8FEEF1616B9
:1040C0001706E807F907C0F012161306E407F5070C
:1040D00098F0621B730B840B950B39F40A2661F080
:1040E000232B242B252B21F408950A2609F4A14023
:1040F000A6958FEF811D811D089597F99F6780E830
:1041000070E060E008959FEF80EC0895DF93CF9317
:104110001F930F93FF92EF92DF927B018C016894C3
:1041200006C0DA2EEF010E941521FE01E894A59148
:104130002591359145915591A6F3EF010E94DE1E20
:10414000FE019701A801DA9469F7DF90EF90FF90E4
:104150000F911F91CF91DF91089500240A941616B4
:10416000170618060906089500240A941216130665
:10417000140605060895092E0394000C11F48823F3
:1041800052F0BB0F40F4BF2B11F460FF04C06F5F0F
:104190007F4F8F4F9F4F089557FD9058440F551FE5
:1041A00059F05F3F71F04795880F97FB991F61F0B9
:1041B0009F3F79F087950895121613061406551F30
:1041C000F2CF4695F1DF08C0161617061806991F9C
:1041D000F1CF86957105610508940895E894BB2791
:1041E00066277727CB0197F908950E94592008F494
:1041F0008FEF08959B01AC0160E070E080E89FE3E1
:104200000C94AA1F0E9415210C94BB200E94AD2083
:1042100038F00E94B42020F0952311F00C947D20FA
:104220000C94832011240C94EF200E94CC2070F376
:10423000959FC1F3950F50E0551F629FF001729F4B
:10424000BB27F00DB11D639FAA27F00DB11DAA1F5A
:10425000649F6627B00DA11D661F829F2227B00DA7
:10426000A11D621F739FB00DA11D621F839FA00D32
:10427000611D221F749F3327A00D611D231F849F82
:10428000600D211D822F762F6A2F11249F575040D9
:104290009AF0F1F088234AF0EE0FFF1FBB1F661F54
:1042A000771F881F91505040A9F79E3F510580F01D
:1042B0000C947D200C94EF205F3FE4F3983ED4F300
:1042C000869577956795B795F795E7959F5FC1F7C1
:1042D000FE2B880F911D9695879597F9089519F4EF
:1042E00016F40C9483200C94B9210E94D420B8F3C6
:1042F0009923C9F3B6F39F57550B87FF0E94C72137
:104300000024A0E640EA900180585695979528F43D
:10431000805C660F771F881F20F026173707480735
:1043200030F4621B730B840B202931294A2BA6958C
:1043300017940794202531254A2758F7660F771FD1
:10434000881F20F026173707480730F4620B730BDD
:10435000840B200D311D411DA09581F7B901842FDB
:104360009158880F9695879508959B01AC010C9400
:1043700002219F3F31F0915020F487957795679502
:10438000B795880F911D9695879597F90895915047
:104390005040660F771F881FD2F70895DB018F9377
:1043A0009F930E941422BF91AF91A29F800D911DF7
:1043B000A39F900DB29F900D1124089597FB072E97
:1043C00016F4009407D077FD09D00E94562207FC0E
:1043D00005D03EF4909581959F4F08957095619515
:1043E0007F4F0895A1E21A2EAA1BBB1BFD010DC031
:1043F000AA1FBB1FEE1FFF1FA217B307E407F50795
:1044000020F0A21BB30BE40BF50B661F771F881F70
:10441000991F1A9469F760957095809590959B0106
:10442000AC01BD01CF0108950E947022A59F900D9F
:10443000B49F900DA49F800D911D112408952F927B
:104440003F924F925F926F927F928F929F92AF9224
:10445000BF92CF92DF92EF92FF920F931F93CF9371
:10446000DF93CDB7DEB7CA1BDB0B0FB6F894DEBF08
:104470000FBECDBF09942A88398848885F846E842E
:104480007D848C849B84AA84B984C884DF80EE8078
:10449000FD800C811B81AA81B981CE0FD11D0FB681
:1044A000F894DEBF0FBECDBFED010895AA1BBB1B64
:1044B00051E107C0AA1FBB1FA617B70710F0A61B24
:1044C000B70B881F991F5A95A9F780959095BC0145
:1044D000CD010895EE0FFF1F0590F491E02D099492
:1044E000A29FB001B39FC001A39F700D811D112435
:1044F000911DB29F700D811D1124911D0895FB0126
:10450000DC0102C001900D9241505040D8F708954F
:04451000F894FFCF4D
:104514000000210980007374645F6D7367732F5406
:10452400696D650063643731363663373463353516
:104534003263333131666263633266653561376293
:104544006332383900726F7373657269616C5F6DC1
:104554007367732F546F706963496E666F003061BF
:1045640064353166383866633434383932663863D2
:1045740031303638343037373634363030350072EF
:104584006F7373657269616C5F6D7367732F4C6FC2
:104594006700313161626437333163323539333323
:1045A40032363163643631383362643132643632E0
:1045B40039350039663065393862646136353938E1
:1045C4003139383664646635336166613761343055
:1045D400653439007374645F6D7367732F48656164
:1045E40064657200323137366465636165636263A2
:1045F40065373861626333623936656630343966EB
:10460400616265640067656F6D657472795F6D736F
:1046140067732F5175617465726E696F6E006137CF
:104624003739383739666164663031363037333478
:104634006639303662386331396337303034006775
:10464400656F6D657472795F6D7367732F566563FB
:10465400746F723300346138343262363566343103
:1046640033303834646332623130666234383465EE
:1046740061376631370073656E736F725F6D736790
:10468400732F496D75003661363263366461616536
:1046940031303366346666353761313332643666B9
:1046A400393563656332004D6573736167652066F0
:1046B400726F6D206465766963652064726F7070D3
:1046C40065643A206D657373616765206C61726718
:1046D4006572207468616E206275666665722E006C
:1046E4006D70753630353000726F73736572696141
:1046F4006C5F6D7367732F52657175657374506168
:1047040072616D0000000000BF00E30029012C016C
:10471400000000008A0572062F013201000000002B
:1047240060053106350138010000000094043D079E
:104734003B013E0100000000E203C30841014401C3
:10474400000000008D026B0347014A0100000000D5
:104754005F029D034D01500100000000230467091E
:1047640053015601000000005E01830B5901000053
:104774000000BF1495146914711485149414000076
:0E47840000003519B41ADE180A19EE182A19A9
:00000001FF
